{
  "contractName": "Poll",
  "abi": [
    {
      "anonymous": false,
      "inputs": [
        {
          "indexed": true,
          "internalType": "address",
          "name": "previousOwner",
          "type": "address"
        },
        {
          "indexed": true,
          "internalType": "address",
          "name": "newOwner",
          "type": "address"
        }
      ],
      "name": "OwnershipTransferred",
      "type": "event"
    },
    {
      "inputs": [],
      "name": "owner",
      "outputs": [
        {
          "internalType": "address",
          "name": "",
          "type": "address"
        }
      ],
      "stateMutability": "view",
      "type": "function"
    },
    {
      "inputs": [],
      "name": "pollCloseTime",
      "outputs": [
        {
          "internalType": "uint256",
          "name": "",
          "type": "uint256"
        }
      ],
      "stateMutability": "view",
      "type": "function"
    },
    {
      "inputs": [],
      "name": "pollName",
      "outputs": [
        {
          "internalType": "string",
          "name": "",
          "type": "string"
        }
      ],
      "stateMutability": "view",
      "type": "function"
    },
    {
      "inputs": [
        {
          "internalType": "uint256",
          "name": "",
          "type": "uint256"
        }
      ],
      "name": "pollOptions",
      "outputs": [
        {
          "internalType": "string",
          "name": "name",
          "type": "string"
        },
        {
          "internalType": "uint256",
          "name": "count",
          "type": "uint256"
        }
      ],
      "stateMutability": "view",
      "type": "function"
    },
    {
      "inputs": [],
      "name": "pollOwner",
      "outputs": [
        {
          "internalType": "address",
          "name": "",
          "type": "address"
        }
      ],
      "stateMutability": "view",
      "type": "function"
    },
    {
      "inputs": [],
      "name": "renounceOwnership",
      "outputs": [],
      "stateMutability": "nonpayable",
      "type": "function"
    },
    {
      "inputs": [
        {
          "internalType": "address",
          "name": "newOwner",
          "type": "address"
        }
      ],
      "name": "transferOwnership",
      "outputs": [],
      "stateMutability": "nonpayable",
      "type": "function"
    },
    {
      "inputs": [
        {
          "internalType": "address",
          "name": "",
          "type": "address"
        }
      ],
      "name": "voters",
      "outputs": [
        {
          "internalType": "bool",
          "name": "voted",
          "type": "bool"
        },
        {
          "internalType": "uint256",
          "name": "choice",
          "type": "uint256"
        },
        {
          "internalType": "bool",
          "name": "canVote",
          "type": "bool"
        }
      ],
      "stateMutability": "view",
      "type": "function"
    },
    {
      "inputs": [
        {
          "internalType": "string",
          "name": "_name",
          "type": "string"
        },
        {
          "internalType": "uint256",
          "name": "_pollCloseTimeHours",
          "type": "uint256"
        }
      ],
      "name": "createPoll",
      "outputs": [],
      "stateMutability": "nonpayable",
      "type": "function"
    },
    {
      "inputs": [
        {
          "internalType": "string",
          "name": "_name",
          "type": "string"
        }
      ],
      "name": "addOption",
      "outputs": [],
      "stateMutability": "nonpayable",
      "type": "function"
    },
    {
      "inputs": [
        {
          "internalType": "address",
          "name": "_voter",
          "type": "address"
        }
      ],
      "name": "addVoter",
      "outputs": [],
      "stateMutability": "nonpayable",
      "type": "function"
    },
    {
      "inputs": [
        {
          "internalType": "uint256",
          "name": "_voteIndex",
          "type": "uint256"
        }
      ],
      "name": "vote",
      "outputs": [],
      "stateMutability": "nonpayable",
      "type": "function"
    },
    {
      "inputs": [],
      "name": "numberOfOptions",
      "outputs": [
        {
          "internalType": "uint256",
          "name": "",
          "type": "uint256"
        }
      ],
      "stateMutability": "view",
      "type": "function"
    },
    {
      "inputs": [
        {
          "internalType": "uint256",
          "name": "_index",
          "type": "uint256"
        }
      ],
      "name": "returnPollOptionName",
      "outputs": [
        {
          "internalType": "string",
          "name": "",
          "type": "string"
        }
      ],
      "stateMutability": "view",
      "type": "function"
    },
    {
      "inputs": [
        {
          "internalType": "uint256",
          "name": "_index",
          "type": "uint256"
        }
      ],
      "name": "returnPollOptionCount",
      "outputs": [
        {
          "internalType": "uint256",
          "name": "",
          "type": "uint256"
        }
      ],
      "stateMutability": "view",
      "type": "function"
    }
  ],
  "bytecode": "0x608060405234801561001057600080fd5b5061002d61002261003260201b60201c565b61003a60201b60201c565b6100fe565b600033905090565b60008060009054906101000a900473ffffffffffffffffffffffffffffffffffffffff169050816000806101000a81548173ffffffffffffffffffffffffffffffffffffffff021916908373ffffffffffffffffffffffffffffffffffffffff1602179055508173ffffffffffffffffffffffffffffffffffffffff168173ffffffffffffffffffffffffffffffffffffffff167f8be0079c531659141344cd1fd0a4f28419497f9722a3daafe3b4186f6b6457e060405160405180910390a35050565b6115e78061010d6000396000f3fe608060405234801561001057600080fd5b50600436106100f55760003560e01c806387ed3ecf11610097578063dbdf7a8b11610066578063dbdf7a8b14610265578063edc550dc14610295578063f2fde38b146102b1578063f4ab9adf146102cd576100f5565b806387ed3ecf146101db5780638da5cb5b146101f9578063a3ec138d14610217578063c7449cb714610249576100f5565b8063285ad937116100d3578063285ad937146101645780635b23446214610182578063715018a6146101b35780637a6b62fc146101bd576100f5565b80630121b93f146100fa57806311ac4f16146101165780631876976514610146575b600080fd5b610114600480360381019061010f9190610c47565b6102e9565b005b610130600480360381019061012b9190610c47565b6104f1565b60405161013d9190610d04565b60405180910390f35b61014e6105a8565b60405161015b9190610d04565b60405180910390f35b61016c610636565b6040516101799190610d67565b60405180910390f35b61019c60048036038101906101979190610c47565b61065c565b6040516101aa929190610d91565b60405180910390f35b6101bb610718565b005b6101c561072c565b6040516101d29190610dc1565b60405180910390f35b6101e3610732565b6040516101f09190610dc1565b60405180910390f35b61020161073f565b60405161020e9190610d67565b60405180910390f35b610231600480360381019061022c9190610e08565b610768565b60405161024093929190610e50565b60405180910390f35b610263600480360381019061025e9190610fbc565b6107ac565b005b61027f600480360381019061027a9190610c47565b61089d565b60405161028c9190610dc1565b60405180910390f35b6102af60048036038101906102aa9190611018565b6108cc565b005b6102cb60048036038101906102c69190610e08565b610985565b005b6102e760048036038101906102e29190610e08565b610a08565b005b60035442111561032e576040517f08c379a0000000000000000000000000000000000000000000000000000000008152600401610325906110ad565b60405180910390fd5b60011515600460003373ffffffffffffffffffffffffffffffffffffffff1673ffffffffffffffffffffffffffffffffffffffff16815260200190815260200160002060000160009054906101000a900460ff1615150361040f576000600460003373ffffffffffffffffffffffffffffffffffffffff1673ffffffffffffffffffffffffffffffffffffffff1681526020019081526020016000206001015490506001600582815481106103e6576103e56110cd565b5b90600052602060002090600202016001016000828254610406919061112b565b92505081905550505b6001600460003373ffffffffffffffffffffffffffffffffffffffff1673ffffffffffffffffffffffffffffffffffffffff16815260200190815260200160002060000160006101000a81548160ff02191690831515021790555080600460003373ffffffffffffffffffffffffffffffffffffffff1673ffffffffffffffffffffffffffffffffffffffff168152602001908152602001600020600101819055506001600582815481106104c7576104c66110cd565b5b906000526020600020906002020160010160008282546104e7919061115f565b9250508190555050565b606060058281548110610507576105066110cd565b5b90600052602060002090600202016000018054610523906111c2565b80601f016020809104026020016040519081016040528092919081815260200182805461054f906111c2565b801561059c5780601f106105715761010080835404028352916020019161059c565b820191906000526020600020905b81548152906001019060200180831161057f57829003601f168201915b50505050509050919050565b600280546105b5906111c2565b80601f01602080910402602001604051908101604052809291908181526020018280546105e1906111c2565b801561062e5780601f106106035761010080835404028352916020019161062e565b820191906000526020600020905b81548152906001019060200180831161061157829003601f168201915b505050505081565b600160009054906101000a900473ffffffffffffffffffffffffffffffffffffffff1681565b6005818154811061066c57600080fd5b906000526020600020906002020160009150905080600001805461068f906111c2565b80601f01602080910402602001604051908101604052809291908181526020018280546106bb906111c2565b80156107085780601f106106dd57610100808354040283529160200191610708565b820191906000526020600020905b8154815290600101906020018083116106eb57829003601f168201915b5050505050908060010154905082565b610720610ab3565b61072a6000610b31565b565b60035481565b6000600580549050905090565b60008060009054906101000a900473ffffffffffffffffffffffffffffffffffffffff16905090565b60046020528060005260406000206000915090508060000160009054906101000a900460ff16908060010154908060020160009054906101000a900460ff16905083565b33600160006101000a81548173ffffffffffffffffffffffffffffffffffffffff021916908373ffffffffffffffffffffffffffffffffffffffff160217905550600160046000600160009054906101000a900473ffffffffffffffffffffffffffffffffffffffff1673ffffffffffffffffffffffffffffffffffffffff1673ffffffffffffffffffffffffffffffffffffffff16815260200190815260200160002060020160006101000a81548160ff0219169083151502179055508160029081610879919061139f565b50610e10816108889190611471565b42610893919061115f565b6003819055505050565b6000600582815481106108b3576108b26110cd565b5b9060005260206000209060020201600101549050919050565b6108d4610ab3565b600354421115610919576040517f08c379a0000000000000000000000000000000000000000000000000000000008152600401610910906110ad565b60405180910390fd5b600060405180604001604052808381526020016000815250905060058190806001815401808255809150506001900390600052602060002090600202016000909190919091506000820151816000019081610974919061139f565b506020820151816001015550505050565b61098d610ab3565b600073ffffffffffffffffffffffffffffffffffffffff168173ffffffffffffffffffffffffffffffffffffffff16036109fc576040517f08c379a00000000000000000000000000000000000000000000000000000000081526004016109f390611525565b60405180910390fd5b610a0581610b31565b50565b610a10610ab3565b600354421115610a55576040517f08c379a0000000000000000000000000000000000000000000000000000000008152600401610a4c906110ad565b60405180910390fd5b6001600460008373ffffffffffffffffffffffffffffffffffffffff1673ffffffffffffffffffffffffffffffffffffffff16815260200190815260200160002060020160006101000a81548160ff02191690831515021790555050565b610abb610bf5565b73ffffffffffffffffffffffffffffffffffffffff16610ad961073f565b73ffffffffffffffffffffffffffffffffffffffff1614610b2f576040517f08c379a0000000000000000000000000000000000000000000000000000000008152600401610b2690611591565b60405180910390fd5b565b60008060009054906101000a900473ffffffffffffffffffffffffffffffffffffffff169050816000806101000a81548173ffffffffffffffffffffffffffffffffffffffff021916908373ffffffffffffffffffffffffffffffffffffffff1602179055508173ffffffffffffffffffffffffffffffffffffffff168173ffffffffffffffffffffffffffffffffffffffff167f8be0079c531659141344cd1fd0a4f28419497f9722a3daafe3b4186f6b6457e060405160405180910390a35050565b600033905090565b6000604051905090565b600080fd5b600080fd5b6000819050919050565b610c2481610c11565b8114610c2f57600080fd5b50565b600081359050610c4181610c1b565b92915050565b600060208284031215610c5d57610c5c610c07565b5b6000610c6b84828501610c32565b91505092915050565b600081519050919050565b600082825260208201905092915050565b60005b83811015610cae578082015181840152602081019050610c93565b60008484015250505050565b6000601f19601f8301169050919050565b6000610cd682610c74565b610ce08185610c7f565b9350610cf0818560208601610c90565b610cf981610cba565b840191505092915050565b60006020820190508181036000830152610d1e8184610ccb565b905092915050565b600073ffffffffffffffffffffffffffffffffffffffff82169050919050565b6000610d5182610d26565b9050919050565b610d6181610d46565b82525050565b6000602082019050610d7c6000830184610d58565b92915050565b610d8b81610c11565b82525050565b60006040820190508181036000830152610dab8185610ccb565b9050610dba6020830184610d82565b9392505050565b6000602082019050610dd66000830184610d82565b92915050565b610de581610d46565b8114610df057600080fd5b50565b600081359050610e0281610ddc565b92915050565b600060208284031215610e1e57610e1d610c07565b5b6000610e2c84828501610df3565b91505092915050565b60008115159050919050565b610e4a81610e35565b82525050565b6000606082019050610e656000830186610e41565b610e726020830185610d82565b610e7f6040830184610e41565b949350505050565b600080fd5b600080fd5b7f4e487b7100000000000000000000000000000000000000000000000000000000600052604160045260246000fd5b610ec982610cba565b810181811067ffffffffffffffff82111715610ee857610ee7610e91565b5b80604052505050565b6000610efb610bfd565b9050610f078282610ec0565b919050565b600067ffffffffffffffff821115610f2757610f26610e91565b5b610f3082610cba565b9050602081019050919050565b82818337600083830152505050565b6000610f5f610f5a84610f0c565b610ef1565b905082815260208101848484011115610f7b57610f7a610e8c565b5b610f86848285610f3d565b509392505050565b600082601f830112610fa357610fa2610e87565b5b8135610fb3848260208601610f4c565b91505092915050565b60008060408385031215610fd357610fd2610c07565b5b600083013567ffffffffffffffff811115610ff157610ff0610c0c565b5b610ffd85828601610f8e565b925050602061100e85828601610c32565b9150509250929050565b60006020828403121561102e5761102d610c07565b5b600082013567ffffffffffffffff81111561104c5761104b610c0c565b5b61105884828501610f8e565b91505092915050565b7f5468697320706f6c6c206973206e6f7720636c6f7365642e0000000000000000600082015250565b6000611097601883610c7f565b91506110a282611061565b602082019050919050565b600060208201905081810360008301526110c68161108a565b9050919050565b7f4e487b7100000000000000000000000000000000000000000000000000000000600052603260045260246000fd5b7f4e487b7100000000000000000000000000000000000000000000000000000000600052601160045260246000fd5b600061113682610c11565b915061114183610c11565b9250828203905081811115611159576111586110fc565b5b92915050565b600061116a82610c11565b915061117583610c11565b925082820190508082111561118d5761118c6110fc565b5b92915050565b7f4e487b7100000000000000000000000000000000000000000000000000000000600052602260045260246000fd5b600060028204905060018216806111da57607f821691505b6020821081036111ed576111ec611193565b5b50919050565b60008190508160005260206000209050919050565b60006020601f8301049050919050565b600082821b905092915050565b6000600883026112557fffffffffffffffffffffffffffffffffffffffffffffffffffffffffffffffff82611218565b61125f8683611218565b95508019841693508086168417925050509392505050565b6000819050919050565b600061129c61129761129284610c11565b611277565b610c11565b9050919050565b6000819050919050565b6112b683611281565b6112ca6112c2826112a3565b848454611225565b825550505050565b600090565b6112df6112d2565b6112ea8184846112ad565b505050565b5b8181101561130e576113036000826112d7565b6001810190506112f0565b5050565b601f82111561135357611324816111f3565b61132d84611208565b8101602085101561133c578190505b61135061134885611208565b8301826112ef565b50505b505050565b600082821c905092915050565b600061137660001984600802611358565b1980831691505092915050565b600061138f8383611365565b9150826002028217905092915050565b6113a882610c74565b67ffffffffffffffff8111156113c1576113c0610e91565b5b6113cb82546111c2565b6113d6828285611312565b600060209050601f83116001811461140957600084156113f7578287015190505b6114018582611383565b865550611469565b601f198416611417866111f3565b60005b8281101561143f5784890151825560018201915060208501945060208101905061141a565b8683101561145c5784890151611458601f891682611365565b8355505b6001600288020188555050505b505050505050565b600061147c82610c11565b915061148783610c11565b925082820261149581610c11565b915082820484148315176114ac576114ab6110fc565b5b5092915050565b7f4f776e61626c653a206e6577206f776e657220697320746865207a65726f206160008201527f6464726573730000000000000000000000000000000000000000000000000000602082015250565b600061150f602683610c7f565b915061151a826114b3565b604082019050919050565b6000602082019050818103600083015261153e81611502565b9050919050565b7f4f776e61626c653a2063616c6c6572206973206e6f7420746865206f776e6572600082015250565b600061157b602083610c7f565b915061158682611545565b602082019050919050565b600060208201905081810360008301526115aa8161156e565b905091905056fea264697066735822122069771a4d1f35f4a3446568530ffea66e957a659fceaaca699e9d9d65d7b5969364736f6c63430008110033",
  "immutableReferences": {},
  "source": "// SPDX-License-Identifier: GPL-3.0\r\n\r\npragma solidity ^0.8.0;\r\n\r\n// @dev Fixes Ownable.sol import when testing\r\nimport \"./Ownable.sol\";\r\n\r\n/**\r\n * @title Super Blockchain Voting Thing\r\n * @author 733t c0d3r\r\n * @notice This contract has been inspired by: \r\n    - Blockgeeks - How To Code Ethereum Election Smart Contract - https://www.youtube.com/watch?v=ucszgKGFnwc\r\n    - The default example contract 3_Ballot.sol in Remix IDE\r\n \r\n * @dev Efficiency can be improved by having the poll options added as a single array in one block\r\n */\r\n\r\n\r\n// @dev Contract for creating a poll\r\ncontract Poll is Ownable {\r\n\r\n    // @dev Data structure defining Voter\r\n    struct Voter {\r\n        bool voted; // has the person voted already\r\n        uint choice; // which option the voter has chosen\r\n        bool canVote; // can the voter vote\r\n    }\r\n\r\n    // @dev Data structure defining VotingOption\r\n    struct VotingOption {\r\n        string name; // name of option to be voted on\r\n        uint count; // count of votes for option\r\n    }\r\n\r\n    address public pollOwner; // organiser of the poll\r\n    string public pollName; // name of the poll\r\n    uint public pollCloseTime; // Time to close the poll\r\n\r\n    mapping(address => Voter) public voters; // list of voters\r\n\r\n    VotingOption[] public pollOptions; // Create an array of datatype VotingOption\r\n\r\n    // @dev Modifier to check poll is still open\r\n    modifier pollOpen {\r\n        require(block.timestamp <= pollCloseTime, \"This poll is now closed.\");\r\n        _;\r\n    }\r\n\r\n    // @dev Create new poll\r\n    function createPoll(string memory _name, uint _pollCloseTimeHours) public {\r\n        pollOwner = msg.sender;\r\n        voters[pollOwner].canVote = true; // Assign organiser can vote\r\n        pollName = _name;\r\n        pollCloseTime = block.timestamp + (_pollCloseTimeHours * 1 hours);\r\n    }\r\n\r\n    // @dev Add a polling option. Only the poll owner can call it\r\n    function addOption(string memory _name) public onlyOwner pollOpen {\r\n        VotingOption memory optionName = VotingOption(_name, 0); // define option with vote count = 0\r\n        pollOptions.push(optionName); // Add option to array pollOptions\r\n    }\r\n\r\n    // @dev Adds a voter\r\n    function addVoter(address _voter) public onlyOwner pollOpen {\r\n        voters[_voter].canVote = true; // sets voters ability to vote\r\n    }\r\n\r\n    // @dev Function to vote\r\n    function vote(uint _voteIndex) public pollOpen {\r\n        // if voter has already voted\r\n        if (voters[msg.sender].voted == true) {\r\n            uint previousChoice = voters[msg.sender].choice; // get voters previous choice\r\n            pollOptions[previousChoice].count -= 1; // remove 1 from the count of the previous choice\r\n        }\r\n\r\n        voters[msg.sender].voted = true; // record voter as having voted\r\n        voters[msg.sender].choice = _voteIndex; // record the voters choice\r\n        pollOptions[_voteIndex].count += 1; // add 1 to the count of the voters choice\r\n    }\r\n\r\n    // @dev Fetches total number of options\r\n    function numberOfOptions() public view returns(uint) {\r\n        return pollOptions.length;\r\n    }\r\n\r\n    // @dev Returns poll option name\r\n    function returnPollOptionName(uint _index) public view returns(string memory) {\r\n        return pollOptions[_index].name;\r\n    }\r\n\r\n    // @dev Returns poll option vote count\r\n    function returnPollOptionCount(uint _index) public view returns(uint) {\r\n        return pollOptions[_index].count;\r\n    }\r\n}",
  "sourcePath": "c:\\Projects\\optical-crow\\contracts\\voting.sol",
  "compiler": {
    "name": "solc",
    "version": "0.8.17+commit.8df45f5f.Emscripten.clang"
  },
  "schemaVersion": "3.4.11",
  "updatedAt": "2022-12-05T20:13:03.194Z",
  "devdoc": {
    "author": "733t c0d3r",
    "details": "Efficiency can be improved by having the poll options added as a single array in one block",
    "kind": "dev",
    "methods": {
      "owner()": {
        "details": "Returns the address of the current owner."
      },
      "renounceOwnership()": {
        "details": "Leaves the contract without owner. It will not be possible to call `onlyOwner` functions anymore. Can only be called by the current owner. NOTE: Renouncing ownership will leave the contract without an owner, thereby removing any functionality that is only available to the owner."
      },
      "transferOwnership(address)": {
        "details": "Transfers ownership of the contract to a new account (`newOwner`). Can only be called by the current owner."
      }
    },
    "title": "Super Blockchain Voting Thing",
    "version": 1
  },
  "userdoc": {
    "kind": "user",
    "methods": {},
    "notice": "This contract has been inspired by:  - Blockgeeks - How To Code Ethereum Election Smart Contract - https://www.youtube.com/watch?v=ucszgKGFnwc - The default example contract 3_Ballot.sol in Remix IDE",
    "version": 1
  }
}